{
  "contractName": "ERC721TransferGateway",
  "sourceName": "src/solc_0.7/ERC721TransferGateway.sol",
  "abi": [
    {
      "inputs": [
        {
          "components": [
            {
              "internalType": "contract IERC721",
              "name": "tokenContract",
              "type": "address"
            },
            {
              "internalType": "uint256[]",
              "name": "tokens",
              "type": "uint256[]"
            }
          ],
          "internalType": "struct ERC721TransferGateway.TransfersPerContract[]",
          "name": "tokenTransfers",
          "type": "tuple[]"
        },
        {
          "internalType": "address",
          "name": "to",
          "type": "address"
        },
        {
          "internalType": "bytes",
          "name": "callData",
          "type": "bytes"
        }
      ],
      "name": "forward",
      "outputs": [
        {
          "internalType": "bytes",
          "name": "",
          "type": "bytes"
        }
      ],
      "stateMutability": "payable",
      "type": "function"
    },
    {
      "inputs": [
        {
          "components": [
            {
              "internalType": "contract IERC721",
              "name": "tokenContract",
              "type": "address"
            },
            {
              "internalType": "uint256[]",
              "name": "tokens",
              "type": "uint256[]"
            }
          ],
          "internalType": "struct ERC721TransferGateway.TransfersPerContract[]",
          "name": "tokenTransfers",
          "type": "tuple[]"
        },
        {
          "internalType": "address",
          "name": "to",
          "type": "address"
        },
        {
          "internalType": "bytes",
          "name": "callData",
          "type": "bytes"
        }
      ],
      "name": "transferAndCall",
      "outputs": [
        {
          "internalType": "bytes",
          "name": "",
          "type": "bytes"
        }
      ],
      "stateMutability": "payable",
      "type": "function"
    }
  ],
  "bytecode": "0x608060405234801561001057600080fd5b506109ad806100206000396000f3fe6080604052600436106100295760003560e01c8063d7a8d3c71461002e578063e91ecd0814610057575b600080fd5b61004161003c3660046104c3565b61006a565b60405161004e9190610809565b60405180910390f35b6100416100653660046104c3565b610186565b60606000610076610288565b905060005b865181101561016c5760005b87828151811061009357fe5b60200260200101516020015151811015610163578782815181106100b357fe5b60200260200101516000015173ffffffffffffffffffffffffffffffffffffffff166323b872dd84898b86815181106100e857fe5b60200260200101516020015185815181106100ff57fe5b60200260200101516040518463ffffffff1660e01b8152600401610125939291906106f8565b600060405180830381600087803b15801561013f57600080fd5b505af1158015610153573d6000803e3d6000fd5b5050600190920191506100879050565b5060010161007b565b5061017a818787878761028c565b9150505b949350505050565b60606000610192610288565b905060005b865181101561016c5760005b8782815181106101af57fe5b6020026020010151602001515181101561027f578782815181106101cf57fe5b60200260200101516000015173ffffffffffffffffffffffffffffffffffffffff166323b872dd30898b868151811061020457fe5b602002602001015160200151858151811061021b57fe5b60200260200101516040518463ffffffff1660e01b8152600401610241939291906106f8565b600060405180830381600087803b15801561025b57600080fd5b505af115801561026f573d6000803e3d6000fd5b5050600190920191506101a39050565b50600101610197565b3390565b606080838387896040516020016102a4929190610729565b60408051601f19818403018152908290526102c39392916020016106b6565b60408051601f1981840301815291905290506102f673ffffffffffffffffffffffffffffffffffffffff86168234610301565b979650505050505050565b606061017e84848460405180606001604052806029815260200161094f6029913960608247101561034d5760405162461bcd60e51b815260040161034490610823565b60405180910390fd5b61035985858585610362565b95945050505050565b606061036d85610433565b6103895760405162461bcd60e51b815260040161034490610880565b600060608673ffffffffffffffffffffffffffffffffffffffff1685876040516103b391906106dc565b60006040518083038185875af1925050503d80600081146103f0576040519150601f19603f3d011682016040523d82523d6000602084013e6103f5565b606091505b5091509150811561040957915061017e9050565b8051156104195780518082602001fd5b8360405162461bcd60e51b81526004016103449190610809565b6000813f7fc5d2460186f7233c927e7db2dcc703c0e500b653ca82273b7bfad8045d85a47081811480159061046757508115155b925050505b919050565b803561046c81610929565b60008083601f84011261048d578182fd5b50813567ffffffffffffffff8111156104a4578182fd5b6020830191508360208285010111156104bc57600080fd5b9250929050565b600080600080606085870312156104d8578384fd5b67ffffffffffffffff853511156104ed578384fd5b8435850186601f8201126104ff578485fd5b61051161050c82356108db565b6108b7565b81358152602080820191908301875b843581101561062757813585016040601f19828e0301121561054057898afd5b60405180604082011067ffffffffffffffff6040830111171561055f57fe5b604081016040526105736020830135610929565b6020820135815267ffffffffffffffff60408301351115610592578a8bfd5b6040820135820191508c603f8301126105a9578a8bfd5b6105b961050c60208401356108db565b8060208401358252602082019150604084018f60406020808801350287010111156105e2578d8efd5b8d5b60208601358110156106065781358452602093840193909101906001016105e4565b50506020838101919091529187525094850194929092019150600101610520565b505080965050505061063b60208601610471565b925067ffffffffffffffff60408601351115610655578182fd5b610665866040870135870161047c565b949793965094505050565b73ffffffffffffffffffffffffffffffffffffffff169052565b600081518084526106a28160208601602086016108f9565b601f01601f19169290920160200192915050565b60008385833783820181815283516106d28183602088016108f9565b0195945050505050565b600082516106ee8184602087016108f9565b9190910192915050565b73ffffffffffffffffffffffffffffffffffffffff9384168152919092166020820152604081019190915260600190565b604080825283518282018190526000919060609081850190602080820287018401818a01875b848110156107eb578983037fffffffffffffffffffffffffffffffffffffffffffffffffffffffffffffffa00186528151805173ffffffffffffffffffffffffffffffffffffffff1684528401518484018990528051898501819052908501908a90898601905b808310156107d657835182529287019260019290920191908701906107b6565b5097860197945050509083019060010161074f565b5050809650506107fd81880189610670565b50505050509392505050565b60006020825261081c602083018461068a565b9392505050565b60208082526026908201527f416464726573733a20696e73756666696369656e742062616c616e636520666f60408201527f722063616c6c0000000000000000000000000000000000000000000000000000606082015260800190565b6020808252601d908201527f416464726573733a2063616c6c20746f206e6f6e2d636f6e7472616374000000604082015260600190565b60405181810167ffffffffffffffff811182821017156108d357fe5b604052919050565b600067ffffffffffffffff8211156108ef57fe5b5060209081020190565b60005b838110156109145781810151838201526020016108fc565b83811115610923576000848401525b50505050565b73ffffffffffffffffffffffffffffffffffffffff8116811461094b57600080fd5b5056fe416464726573733a206c6f772d6c6576656c2063616c6c20776974682076616c7565206661696c6564a2646970667358221220a21605b4c3edc360c38fb7deba610a79211098d051432903a0e2442b846985c364736f6c63430007030033",
  "linkReferences": {},
  "deployedLinkReferences": {},
  "devdoc": {
    "kind": "dev",
    "methods": {},
    "version": 1
  },
  "evm": {
    "bytecode": {
      "linkReferences": {},
      "opcodes": "PUSH1 0x80 PUSH1 0x40 MSTORE CALLVALUE DUP1 ISZERO PUSH2 0x10 JUMPI PUSH1 0x0 DUP1 REVERT JUMPDEST POP PUSH2 0x9AD DUP1 PUSH2 0x20 PUSH1 0x0 CODECOPY PUSH1 0x0 RETURN INVALID PUSH1 0x80 PUSH1 0x40 MSTORE PUSH1 0x4 CALLDATASIZE LT PUSH2 0x29 JUMPI PUSH1 0x0 CALLDATALOAD PUSH1 0xE0 SHR DUP1 PUSH4 0xD7A8D3C7 EQ PUSH2 0x2E JUMPI DUP1 PUSH4 0xE91ECD08 EQ PUSH2 0x57 JUMPI JUMPDEST PUSH1 0x0 DUP1 REVERT JUMPDEST PUSH2 0x41 PUSH2 0x3C CALLDATASIZE PUSH1 0x4 PUSH2 0x4C3 JUMP JUMPDEST PUSH2 0x6A JUMP JUMPDEST PUSH1 0x40 MLOAD PUSH2 0x4E SWAP2 SWAP1 PUSH2 0x809 JUMP JUMPDEST PUSH1 0x40 MLOAD DUP1 SWAP2 SUB SWAP1 RETURN JUMPDEST PUSH2 0x41 PUSH2 0x65 CALLDATASIZE PUSH1 0x4 PUSH2 0x4C3 JUMP JUMPDEST PUSH2 0x186 JUMP JUMPDEST PUSH1 0x60 PUSH1 0x0 PUSH2 0x76 PUSH2 0x288 JUMP JUMPDEST SWAP1 POP PUSH1 0x0 JUMPDEST DUP7 MLOAD DUP2 LT ISZERO PUSH2 0x16C JUMPI PUSH1 0x0 JUMPDEST DUP8 DUP3 DUP2 MLOAD DUP2 LT PUSH2 0x93 JUMPI INVALID JUMPDEST PUSH1 0x20 MUL PUSH1 0x20 ADD ADD MLOAD PUSH1 0x20 ADD MLOAD MLOAD DUP2 LT ISZERO PUSH2 0x163 JUMPI DUP8 DUP3 DUP2 MLOAD DUP2 LT PUSH2 0xB3 JUMPI INVALID JUMPDEST PUSH1 0x20 MUL PUSH1 0x20 ADD ADD MLOAD PUSH1 0x0 ADD MLOAD PUSH20 0xFFFFFFFFFFFFFFFFFFFFFFFFFFFFFFFFFFFFFFFF AND PUSH4 0x23B872DD DUP5 DUP10 DUP12 DUP7 DUP2 MLOAD DUP2 LT PUSH2 0xE8 JUMPI INVALID JUMPDEST PUSH1 0x20 MUL PUSH1 0x20 ADD ADD MLOAD PUSH1 0x20 ADD MLOAD DUP6 DUP2 MLOAD DUP2 LT PUSH2 0xFF JUMPI INVALID JUMPDEST PUSH1 0x20 MUL PUSH1 0x20 ADD ADD MLOAD PUSH1 0x40 MLOAD DUP5 PUSH4 0xFFFFFFFF AND PUSH1 0xE0 SHL DUP2 MSTORE PUSH1 0x4 ADD PUSH2 0x125 SWAP4 SWAP3 SWAP2 SWAP1 PUSH2 0x6F8 JUMP JUMPDEST PUSH1 0x0 PUSH1 0x40 MLOAD DUP1 DUP4 SUB DUP2 PUSH1 0x0 DUP8 DUP1 EXTCODESIZE ISZERO DUP1 ISZERO PUSH2 0x13F JUMPI PUSH1 0x0 DUP1 REVERT JUMPDEST POP GAS CALL ISZERO DUP1 ISZERO PUSH2 0x153 JUMPI RETURNDATASIZE PUSH1 0x0 DUP1 RETURNDATACOPY RETURNDATASIZE PUSH1 0x0 REVERT JUMPDEST POP POP PUSH1 0x1 SWAP1 SWAP3 ADD SWAP2 POP PUSH2 0x87 SWAP1 POP JUMP JUMPDEST POP PUSH1 0x1 ADD PUSH2 0x7B JUMP JUMPDEST POP PUSH2 0x17A DUP2 DUP8 DUP8 DUP8 DUP8 PUSH2 0x28C JUMP JUMPDEST SWAP2 POP POP JUMPDEST SWAP5 SWAP4 POP POP POP POP JUMP JUMPDEST PUSH1 0x60 PUSH1 0x0 PUSH2 0x192 PUSH2 0x288 JUMP JUMPDEST SWAP1 POP PUSH1 0x0 JUMPDEST DUP7 MLOAD DUP2 LT ISZERO PUSH2 0x16C JUMPI PUSH1 0x0 JUMPDEST DUP8 DUP3 DUP2 MLOAD DUP2 LT PUSH2 0x1AF JUMPI INVALID JUMPDEST PUSH1 0x20 MUL PUSH1 0x20 ADD ADD MLOAD PUSH1 0x20 ADD MLOAD MLOAD DUP2 LT ISZERO PUSH2 0x27F JUMPI DUP8 DUP3 DUP2 MLOAD DUP2 LT PUSH2 0x1CF JUMPI INVALID JUMPDEST PUSH1 0x20 MUL PUSH1 0x20 ADD ADD MLOAD PUSH1 0x0 ADD MLOAD PUSH20 0xFFFFFFFFFFFFFFFFFFFFFFFFFFFFFFFFFFFFFFFF AND PUSH4 0x23B872DD ADDRESS DUP10 DUP12 DUP7 DUP2 MLOAD DUP2 LT PUSH2 0x204 JUMPI INVALID JUMPDEST PUSH1 0x20 MUL PUSH1 0x20 ADD ADD MLOAD PUSH1 0x20 ADD MLOAD DUP6 DUP2 MLOAD DUP2 LT PUSH2 0x21B JUMPI INVALID JUMPDEST PUSH1 0x20 MUL PUSH1 0x20 ADD ADD MLOAD PUSH1 0x40 MLOAD DUP5 PUSH4 0xFFFFFFFF AND PUSH1 0xE0 SHL DUP2 MSTORE PUSH1 0x4 ADD PUSH2 0x241 SWAP4 SWAP3 SWAP2 SWAP1 PUSH2 0x6F8 JUMP JUMPDEST PUSH1 0x0 PUSH1 0x40 MLOAD DUP1 DUP4 SUB DUP2 PUSH1 0x0 DUP8 DUP1 EXTCODESIZE ISZERO DUP1 ISZERO PUSH2 0x25B JUMPI PUSH1 0x0 DUP1 REVERT JUMPDEST POP GAS CALL ISZERO DUP1 ISZERO PUSH2 0x26F JUMPI RETURNDATASIZE PUSH1 0x0 DUP1 RETURNDATACOPY RETURNDATASIZE PUSH1 0x0 REVERT JUMPDEST POP POP PUSH1 0x1 SWAP1 SWAP3 ADD SWAP2 POP PUSH2 0x1A3 SWAP1 POP JUMP JUMPDEST POP PUSH1 0x1 ADD PUSH2 0x197 JUMP JUMPDEST CALLER SWAP1 JUMP JUMPDEST PUSH1 0x60 DUP1 DUP4 DUP4 DUP8 DUP10 PUSH1 0x40 MLOAD PUSH1 0x20 ADD PUSH2 0x2A4 SWAP3 SWAP2 SWAP1 PUSH2 0x729 JUMP JUMPDEST PUSH1 0x40 DUP1 MLOAD PUSH1 0x1F NOT DUP2 DUP5 SUB ADD DUP2 MSTORE SWAP1 DUP3 SWAP1 MSTORE PUSH2 0x2C3 SWAP4 SWAP3 SWAP2 PUSH1 0x20 ADD PUSH2 0x6B6 JUMP JUMPDEST PUSH1 0x40 DUP1 MLOAD PUSH1 0x1F NOT DUP2 DUP5 SUB ADD DUP2 MSTORE SWAP2 SWAP1 MSTORE SWAP1 POP PUSH2 0x2F6 PUSH20 0xFFFFFFFFFFFFFFFFFFFFFFFFFFFFFFFFFFFFFFFF DUP7 AND DUP3 CALLVALUE PUSH2 0x301 JUMP JUMPDEST SWAP8 SWAP7 POP POP POP POP POP POP POP JUMP JUMPDEST PUSH1 0x60 PUSH2 0x17E DUP5 DUP5 DUP5 PUSH1 0x40 MLOAD DUP1 PUSH1 0x60 ADD PUSH1 0x40 MSTORE DUP1 PUSH1 0x29 DUP2 MSTORE PUSH1 0x20 ADD PUSH2 0x94F PUSH1 0x29 SWAP2 CODECOPY PUSH1 0x60 DUP3 SELFBALANCE LT ISZERO PUSH2 0x34D JUMPI PUSH1 0x40 MLOAD PUSH3 0x461BCD PUSH1 0xE5 SHL DUP2 MSTORE PUSH1 0x4 ADD PUSH2 0x344 SWAP1 PUSH2 0x823 JUMP JUMPDEST PUSH1 0x40 MLOAD DUP1 SWAP2 SUB SWAP1 REVERT JUMPDEST PUSH2 0x359 DUP6 DUP6 DUP6 DUP6 PUSH2 0x362 JUMP JUMPDEST SWAP6 SWAP5 POP POP POP POP POP JUMP JUMPDEST PUSH1 0x60 PUSH2 0x36D DUP6 PUSH2 0x433 JUMP JUMPDEST PUSH2 0x389 JUMPI PUSH1 0x40 MLOAD PUSH3 0x461BCD PUSH1 0xE5 SHL DUP2 MSTORE PUSH1 0x4 ADD PUSH2 0x344 SWAP1 PUSH2 0x880 JUMP JUMPDEST PUSH1 0x0 PUSH1 0x60 DUP7 PUSH20 0xFFFFFFFFFFFFFFFFFFFFFFFFFFFFFFFFFFFFFFFF AND DUP6 DUP8 PUSH1 0x40 MLOAD PUSH2 0x3B3 SWAP2 SWAP1 PUSH2 0x6DC JUMP JUMPDEST PUSH1 0x0 PUSH1 0x40 MLOAD DUP1 DUP4 SUB DUP2 DUP6 DUP8 GAS CALL SWAP3 POP POP POP RETURNDATASIZE DUP1 PUSH1 0x0 DUP2 EQ PUSH2 0x3F0 JUMPI PUSH1 0x40 MLOAD SWAP2 POP PUSH1 0x1F NOT PUSH1 0x3F RETURNDATASIZE ADD AND DUP3 ADD PUSH1 0x40 MSTORE RETURNDATASIZE DUP3 MSTORE RETURNDATASIZE PUSH1 0x0 PUSH1 0x20 DUP5 ADD RETURNDATACOPY PUSH2 0x3F5 JUMP JUMPDEST PUSH1 0x60 SWAP2 POP JUMPDEST POP SWAP2 POP SWAP2 POP DUP2 ISZERO PUSH2 0x409 JUMPI SWAP2 POP PUSH2 0x17E SWAP1 POP JUMP JUMPDEST DUP1 MLOAD ISZERO PUSH2 0x419 JUMPI DUP1 MLOAD DUP1 DUP3 PUSH1 0x20 ADD REVERT JUMPDEST DUP4 PUSH1 0x40 MLOAD PUSH3 0x461BCD PUSH1 0xE5 SHL DUP2 MSTORE PUSH1 0x4 ADD PUSH2 0x344 SWAP2 SWAP1 PUSH2 0x809 JUMP JUMPDEST PUSH1 0x0 DUP2 EXTCODEHASH PUSH32 0xC5D2460186F7233C927E7DB2DCC703C0E500B653CA82273B7BFAD8045D85A470 DUP2 DUP2 EQ DUP1 ISZERO SWAP1 PUSH2 0x467 JUMPI POP DUP2 ISZERO ISZERO JUMPDEST SWAP3 POP POP POP JUMPDEST SWAP2 SWAP1 POP JUMP JUMPDEST DUP1 CALLDATALOAD PUSH2 0x46C DUP2 PUSH2 0x929 JUMP JUMPDEST PUSH1 0x0 DUP1 DUP4 PUSH1 0x1F DUP5 ADD SLT PUSH2 0x48D JUMPI DUP2 DUP3 REVERT JUMPDEST POP DUP2 CALLDATALOAD PUSH8 0xFFFFFFFFFFFFFFFF DUP2 GT ISZERO PUSH2 0x4A4 JUMPI DUP2 DUP3 REVERT JUMPDEST PUSH1 0x20 DUP4 ADD SWAP2 POP DUP4 PUSH1 0x20 DUP3 DUP6 ADD ADD GT ISZERO PUSH2 0x4BC JUMPI PUSH1 0x0 DUP1 REVERT JUMPDEST SWAP3 POP SWAP3 SWAP1 POP JUMP JUMPDEST PUSH1 0x0 DUP1 PUSH1 0x0 DUP1 PUSH1 0x60 DUP6 DUP8 SUB SLT ISZERO PUSH2 0x4D8 JUMPI DUP4 DUP5 REVERT JUMPDEST PUSH8 0xFFFFFFFFFFFFFFFF DUP6 CALLDATALOAD GT ISZERO PUSH2 0x4ED JUMPI DUP4 DUP5 REVERT JUMPDEST DUP5 CALLDATALOAD DUP6 ADD DUP7 PUSH1 0x1F DUP3 ADD SLT PUSH2 0x4FF JUMPI DUP5 DUP6 REVERT JUMPDEST PUSH2 0x511 PUSH2 0x50C DUP3 CALLDATALOAD PUSH2 0x8DB JUMP JUMPDEST PUSH2 0x8B7 JUMP JUMPDEST DUP2 CALLDATALOAD DUP2 MSTORE PUSH1 0x20 DUP1 DUP3 ADD SWAP2 SWAP1 DUP4 ADD DUP8 JUMPDEST DUP5 CALLDATALOAD DUP2 LT ISZERO PUSH2 0x627 JUMPI DUP2 CALLDATALOAD DUP6 ADD PUSH1 0x40 PUSH1 0x1F NOT DUP3 DUP15 SUB ADD SLT ISZERO PUSH2 0x540 JUMPI DUP10 DUP11 REVERT JUMPDEST PUSH1 0x40 MLOAD DUP1 PUSH1 0x40 DUP3 ADD LT PUSH8 0xFFFFFFFFFFFFFFFF PUSH1 0x40 DUP4 ADD GT OR ISZERO PUSH2 0x55F JUMPI INVALID JUMPDEST PUSH1 0x40 DUP2 ADD PUSH1 0x40 MSTORE PUSH2 0x573 PUSH1 0x20 DUP4 ADD CALLDATALOAD PUSH2 0x929 JUMP JUMPDEST PUSH1 0x20 DUP3 ADD CALLDATALOAD DUP2 MSTORE PUSH8 0xFFFFFFFFFFFFFFFF PUSH1 0x40 DUP4 ADD CALLDATALOAD GT ISZERO PUSH2 0x592 JUMPI DUP11 DUP12 REVERT JUMPDEST PUSH1 0x40 DUP3 ADD CALLDATALOAD DUP3 ADD SWAP2 POP DUP13 PUSH1 0x3F DUP4 ADD SLT PUSH2 0x5A9 JUMPI DUP11 DUP12 REVERT JUMPDEST PUSH2 0x5B9 PUSH2 0x50C PUSH1 0x20 DUP5 ADD CALLDATALOAD PUSH2 0x8DB JUMP JUMPDEST DUP1 PUSH1 0x20 DUP5 ADD CALLDATALOAD DUP3 MSTORE PUSH1 0x20 DUP3 ADD SWAP2 POP PUSH1 0x40 DUP5 ADD DUP16 PUSH1 0x40 PUSH1 0x20 DUP1 DUP9 ADD CALLDATALOAD MUL DUP8 ADD ADD GT ISZERO PUSH2 0x5E2 JUMPI DUP14 DUP15 REVERT JUMPDEST DUP14 JUMPDEST PUSH1 0x20 DUP7 ADD CALLDATALOAD DUP2 LT ISZERO PUSH2 0x606 JUMPI DUP2 CALLDATALOAD DUP5 MSTORE PUSH1 0x20 SWAP4 DUP5 ADD SWAP4 SWAP1 SWAP2 ADD SWAP1 PUSH1 0x1 ADD PUSH2 0x5E4 JUMP JUMPDEST POP POP PUSH1 0x20 DUP4 DUP2 ADD SWAP2 SWAP1 SWAP2 MSTORE SWAP2 DUP8 MSTORE POP SWAP5 DUP6 ADD SWAP5 SWAP3 SWAP1 SWAP3 ADD SWAP2 POP PUSH1 0x1 ADD PUSH2 0x520 JUMP JUMPDEST POP POP DUP1 SWAP7 POP POP POP POP PUSH2 0x63B PUSH1 0x20 DUP7 ADD PUSH2 0x471 JUMP JUMPDEST SWAP3 POP PUSH8 0xFFFFFFFFFFFFFFFF PUSH1 0x40 DUP7 ADD CALLDATALOAD GT ISZERO PUSH2 0x655 JUMPI DUP2 DUP3 REVERT JUMPDEST PUSH2 0x665 DUP7 PUSH1 0x40 DUP8 ADD CALLDATALOAD DUP8 ADD PUSH2 0x47C JUMP JUMPDEST SWAP5 SWAP8 SWAP4 SWAP7 POP SWAP5 POP POP POP JUMP JUMPDEST PUSH20 0xFFFFFFFFFFFFFFFFFFFFFFFFFFFFFFFFFFFFFFFF AND SWAP1 MSTORE JUMP JUMPDEST PUSH1 0x0 DUP2 MLOAD DUP1 DUP5 MSTORE PUSH2 0x6A2 DUP2 PUSH1 0x20 DUP7 ADD PUSH1 0x20 DUP7 ADD PUSH2 0x8F9 JUMP JUMPDEST PUSH1 0x1F ADD PUSH1 0x1F NOT AND SWAP3 SWAP1 SWAP3 ADD PUSH1 0x20 ADD SWAP3 SWAP2 POP POP JUMP JUMPDEST PUSH1 0x0 DUP4 DUP6 DUP4 CALLDATACOPY DUP4 DUP3 ADD DUP2 DUP2 MSTORE DUP4 MLOAD PUSH2 0x6D2 DUP2 DUP4 PUSH1 0x20 DUP9 ADD PUSH2 0x8F9 JUMP JUMPDEST ADD SWAP6 SWAP5 POP POP POP POP POP JUMP JUMPDEST PUSH1 0x0 DUP3 MLOAD PUSH2 0x6EE DUP2 DUP5 PUSH1 0x20 DUP8 ADD PUSH2 0x8F9 JUMP JUMPDEST SWAP2 SWAP1 SWAP2 ADD SWAP3 SWAP2 POP POP JUMP JUMPDEST PUSH20 0xFFFFFFFFFFFFFFFFFFFFFFFFFFFFFFFFFFFFFFFF SWAP4 DUP5 AND DUP2 MSTORE SWAP2 SWAP1 SWAP3 AND PUSH1 0x20 DUP3 ADD MSTORE PUSH1 0x40 DUP2 ADD SWAP2 SWAP1 SWAP2 MSTORE PUSH1 0x60 ADD SWAP1 JUMP JUMPDEST PUSH1 0x40 DUP1 DUP3 MSTORE DUP4 MLOAD DUP3 DUP3 ADD DUP2 SWAP1 MSTORE PUSH1 0x0 SWAP2 SWAP1 PUSH1 0x60 SWAP1 DUP2 DUP6 ADD SWAP1 PUSH1 0x20 DUP1 DUP3 MUL DUP8 ADD DUP5 ADD DUP2 DUP11 ADD DUP8 JUMPDEST DUP5 DUP2 LT ISZERO PUSH2 0x7EB JUMPI DUP10 DUP4 SUB PUSH32 0xFFFFFFFFFFFFFFFFFFFFFFFFFFFFFFFFFFFFFFFFFFFFFFFFFFFFFFFFFFFFFFA0 ADD DUP7 MSTORE DUP2 MLOAD DUP1 MLOAD PUSH20 0xFFFFFFFFFFFFFFFFFFFFFFFFFFFFFFFFFFFFFFFF AND DUP5 MSTORE DUP5 ADD MLOAD DUP5 DUP5 ADD DUP10 SWAP1 MSTORE DUP1 MLOAD DUP10 DUP6 ADD DUP2 SWAP1 MSTORE SWAP1 DUP6 ADD SWAP1 DUP11 SWAP1 DUP10 DUP7 ADD SWAP1 JUMPDEST DUP1 DUP4 LT ISZERO PUSH2 0x7D6 JUMPI DUP4 MLOAD DUP3 MSTORE SWAP3 DUP8 ADD SWAP3 PUSH1 0x1 SWAP3 SWAP1 SWAP3 ADD SWAP2 SWAP1 DUP8 ADD SWAP1 PUSH2 0x7B6 JUMP JUMPDEST POP SWAP8 DUP7 ADD SWAP8 SWAP5 POP POP POP SWAP1 DUP4 ADD SWAP1 PUSH1 0x1 ADD PUSH2 0x74F JUMP JUMPDEST POP POP DUP1 SWAP7 POP POP PUSH2 0x7FD DUP2 DUP9 ADD DUP10 PUSH2 0x670 JUMP JUMPDEST POP POP POP POP POP SWAP4 SWAP3 POP POP POP JUMP JUMPDEST PUSH1 0x0 PUSH1 0x20 DUP3 MSTORE PUSH2 0x81C PUSH1 0x20 DUP4 ADD DUP5 PUSH2 0x68A JUMP JUMPDEST SWAP4 SWAP3 POP POP POP JUMP JUMPDEST PUSH1 0x20 DUP1 DUP3 MSTORE PUSH1 0x26 SWAP1 DUP3 ADD MSTORE PUSH32 0x416464726573733A20696E73756666696369656E742062616C616E636520666F PUSH1 0x40 DUP3 ADD MSTORE PUSH32 0x722063616C6C0000000000000000000000000000000000000000000000000000 PUSH1 0x60 DUP3 ADD MSTORE PUSH1 0x80 ADD SWAP1 JUMP JUMPDEST PUSH1 0x20 DUP1 DUP3 MSTORE PUSH1 0x1D SWAP1 DUP3 ADD MSTORE PUSH32 0x416464726573733A2063616C6C20746F206E6F6E2D636F6E7472616374000000 PUSH1 0x40 DUP3 ADD MSTORE PUSH1 0x60 ADD SWAP1 JUMP JUMPDEST PUSH1 0x40 MLOAD DUP2 DUP2 ADD PUSH8 0xFFFFFFFFFFFFFFFF DUP2 GT DUP3 DUP3 LT OR ISZERO PUSH2 0x8D3 JUMPI INVALID JUMPDEST PUSH1 0x40 MSTORE SWAP2 SWAP1 POP JUMP JUMPDEST PUSH1 0x0 PUSH8 0xFFFFFFFFFFFFFFFF DUP3 GT ISZERO PUSH2 0x8EF JUMPI INVALID JUMPDEST POP PUSH1 0x20 SWAP1 DUP2 MUL ADD SWAP1 JUMP JUMPDEST PUSH1 0x0 JUMPDEST DUP4 DUP2 LT ISZERO PUSH2 0x914 JUMPI DUP2 DUP2 ADD MLOAD DUP4 DUP3 ADD MSTORE PUSH1 0x20 ADD PUSH2 0x8FC JUMP JUMPDEST DUP4 DUP2 GT ISZERO PUSH2 0x923 JUMPI PUSH1 0x0 DUP5 DUP5 ADD MSTORE JUMPDEST POP POP POP POP JUMP JUMPDEST PUSH20 0xFFFFFFFFFFFFFFFFFFFFFFFFFFFFFFFFFFFFFFFF DUP2 AND DUP2 EQ PUSH2 0x94B JUMPI PUSH1 0x0 DUP1 REVERT JUMPDEST POP JUMP INVALID COINBASE PUSH5 0x6472657373 GASPRICE KECCAK256 PUSH13 0x6F772D6C6576656C2063616C6C KECCAK256 PUSH24 0x6974682076616C7565206661696C6564A264697066735822 SLT KECCAK256 LOG2 AND SDIV 0xB4 0xC3 0xED 0xC3 PUSH1 0xC3 DUP16 0xB7 0xDE 0xBA PUSH2 0xA79 0x21 LT SWAP9 0xD0 MLOAD NUMBER 0x29 SUB LOG0 0xE2 DIFFICULTY 0x2B DUP5 PUSH10 0x85C364736F6C63430007 SUB STOP CALLER "
    },
    "gasEstimates": {
      "creation": {
        "codeDepositCost": "495400",
        "executionCost": "530",
        "totalCost": "495930"
      },
      "external": {
        "forward((address,uint256[])[],address,bytes)": "infinite",
        "transferAndCall((address,uint256[])[],address,bytes)": "infinite"
      },
      "internal": {
        "_call(address,struct ERC721TransferGateway.TransfersPerContract memory[] memory,address,bytes calldata)": "infinite",
        "_msgSender()": "14"
      }
    },
    "methodIdentifiers": {
      "forward((address,uint256[])[],address,bytes)": "e91ecd08",
      "transferAndCall((address,uint256[])[],address,bytes)": "d7a8d3c7"
    }
  },
  "storageLayout": {
    "storage": [],
    "types": null
  },
  "userdoc": {
    "kind": "user",
    "methods": {
      "forward((address,uint256[])[],address,bytes)": {
        "notice": "This functions is special in that it need to be called atomatically after the transfers are done. The transfers are made to the gateway itself before hand. The gateway will then forward them to the destination. This allows the gateway to proceed without being approved first at the cost of extra gas. For the receiver, it behaves exactly like `transferAndCall`. And so the information (sender, tokenTransfers) is appended to the function call the same way."
      },
      "transferAndCall((address,uint256[])[],address,bytes)": {
        "notice": "this transfers the tokens to the destination and call the function (callData). The information (sender, tokenTransfers) is appended to the function call. This allows the recipient contract to keep using normal solidity functions (abi-encoded)."
      }
    },
    "notice": "Gateway that forwward erc721 token transfers to the destination and call it. This allow the receiver to know the sender and tokens received. As the gateway append data to the call, contracts can continue using normal solidity functions (abi-encoded). The Gateway need to be approved for each token contract. For new contracts, they could be pre-approved it globally.",
    "version": 1
  }
}