{
  "abi": [
    {
      "constant": false,
      "inputs": [
        {
          "name": "_greeting",
          "type": "string"
        }
      ],
      "name": "setGreetingThatWorks",
      "outputs": [],
      "payable": false,
      "stateMutability": "nonpayable",
      "type": "function"
    },
    {
      "constant": false,
      "inputs": [
        {
          "name": "_greeting",
          "type": "string"
        }
      ],
      "name": "setGreeting",
      "outputs": [],
      "payable": false,
      "stateMutability": "nonpayable",
      "type": "function"
    },
    {
      "constant": true,
      "inputs": [],
      "name": "greet",
      "outputs": [
        {
          "name": "",
          "type": "string"
        }
      ],
      "payable": false,
      "stateMutability": "view",
      "type": "function"
    },
    {
      "inputs": [
        {
          "name": "_greeting",
          "type": "string"
        }
      ],
      "payable": false,
      "stateMutability": "nonpayable",
      "type": "constructor"
    }
  ],
  "address": "0x3037e0B21e7B8E0BaBAF3611D6D0d5CaC51e67C0",
  "args": [
    "hello world"
  ],
  "bytecode": "0x60806040523480156200001157600080fd5b5060405162000f4838038062000f48833981018060405260208110156200003757600080fd5b8101908080516401000000008111156200005057600080fd5b828101905060208101848111156200006757600080fd5b81518560018202830111640100000000821117156200008557600080fd5b505092919050505062000109606060405190810160405280602281526020017f4465706c6f79696e67206120477265657465722077697468206772656574696e81526020017f673a000000000000000000000000000000000000000000000000000000000000815250826200012964010000000002620008dc176401000000009004565b8060009080519060200190620001219291906200035a565b505062000409565b60006a636f6e736f6c652e6c6f6773ffffffffffffffffffffffffffffffffffffffff168383604051602401808060200180602001838103835285818151815260200191508051906020019080838360005b83811015620001985780820151818401526020810190506200017b565b50505050905090810190601f168015620001c65780820380516001836020036101000a031916815260200191505b50838103825284818151815260200191508051906020019080838360005b8381101562000201578082015181840152602081019050620001e4565b50505050905090810190601f1680156200022f5780820380516001836020036101000a031916815260200191505b509450505050506040516020818303038152906040527f4b5c4277000000000000000000000000000000000000000000000000000000007bffffffffffffffffffffffffffffffffffffffffffffffffffffffff19166020820180517bffffffffffffffffffffffffffffffffffffffffffffffffffffffff83818316178352505050506040518082805190602001908083835b602083101515620002ea5780518252602082019150602081019050602083039250620002c3565b6001836020036101000a038019825116818451168082178552505050505050905001915050600060405180830381855afa9150503d80600081146200034c576040519150601f19603f3d011682016040523d82523d6000602084013e62000351565b606091505b50509050505050565b828054600181600116156101000203166002900490600052602060002090601f016020900481019282601f106200039d57805160ff1916838001178555620003ce565b82800160010185558215620003ce579182015b82811115620003cd578251825591602001919060010190620003b0565b5b509050620003dd9190620003e1565b5090565b6200040691905b8082111562000402576000816000905550600101620003e8565b5090565b90565b610b2f80620004196000396000f3fe608060405260043610610051576000357c0100000000000000000000000000000000000000000000000000000000900480637f98d13714610056578063a41368621461011e578063cfae3217146101e6575b600080fd5b34801561006257600080fd5b5061011c6004803603602081101561007957600080fd5b810190808035906020019064010000000081111561009657600080fd5b8201836020820111156100a857600080fd5b803590602001918460018302840111640100000000831117156100ca57600080fd5b91908080601f016020809104026020016040519081016040528093929190818152602001838380828437600081840152601f19601f820116905080830192505050505050509192919290505050610276565b005b34801561012a57600080fd5b506101e46004803603602081101561014157600080fd5b810190808035906020019064010000000081111561015e57600080fd5b82018360208201111561017057600080fd5b8035906020019184600183028401116401000000008311171561019257600080fd5b91908080601f016020809104026020016040519081016040528093929190818152602001838380828437600081840152601f19601f820116905080830192505050505050509192919290505050610391565b005b3480156101f257600080fd5b506101fb610500565b6040518080602001828103825283818151815260200191508051906020019080838360005b8381101561023b578082015181840152602081019050610220565b50505050905090810190601f1680156102685780820380516001836020036101000a031916815260200191505b509250505060405180910390f35b610377606060405190810160405280602381526020017f4368616e67696e67206772656574696e672066726f6d202725732720746f202781526020017f257327000000000000000000000000000000000000000000000000000000000081525060008054600181600116156101000203166002900480601f01602080910402602001604051908101604052809291908181526020018280546001816001161561010002031660029004801561036c5780601f106103415761010080835404028352916020019161036c565b820191906000526020600020905b81548152906001019060200180831161034f57829003601f168201915b5050505050836105a2565b806000908051906020019061038d929190610837565b5050565b610492606060405190810160405280602381526020017f4368616e67696e67206772656574696e672066726f6d202725732720746f202781526020017f257327000000000000000000000000000000000000000000000000000000000081525060008054600181600116156101000203166002900480601f0160208091040260200160405190810160405280929190818152602001828054600181600116156101000203166002900480156104875780601f1061045c57610100808354040283529160200191610487565b820191906000526020600020905b81548152906001019060200180831161046a57829003601f168201915b5050505050836105a2565b6040517f08c379a00000000000000000000000000000000000000000000000000000000081526004018080602001828103825260138152602001807f66616b65206572726f7220626c6f636b696e670000000000000000000000000081525060200191505060405180910390fd5b606060008054600181600116156101000203166002900480601f0160208091040260200160405190810160405280929190818152602001828054600181600116156101000203166002900480156105985780601f1061056d57610100808354040283529160200191610598565b820191906000526020600020905b81548152906001019060200180831161057b57829003601f168201915b5050505050905090565b60006a636f6e736f6c652e6c6f6773ffffffffffffffffffffffffffffffffffffffff1684848460405160240180806020018060200180602001848103845287818151815260200191508051906020019080838360005b838110156106145780820151818401526020810190506105f9565b50505050905090810190601f1680156106415780820380516001836020036101000a031916815260200191505b50848103835286818151815260200191508051906020019080838360005b8381101561067a57808201518184015260208101905061065f565b50505050905090810190601f1680156106a75780820380516001836020036101000a031916815260200191505b50848103825285818151815260200191508051906020019080838360005b838110156106e05780820151818401526020810190506106c5565b50505050905090810190601f16801561070d5780820380516001836020036101000a031916815260200191505b5096505050505050506040516020818303038152906040527f2ced7cef000000000000000000000000000000000000000000000000000000007bffffffffffffffffffffffffffffffffffffffffffffffffffffffff19166020820180517bffffffffffffffffffffffffffffffffffffffffffffffffffffffff83818316178352505050506040518082805190602001908083835b6020831015156107c857805182526020820191506020810190506020830392506107a3565b6001836020036101000a038019825116818451168082178552505050505050905001915050600060405180830381855afa9150503d8060008114610828576040519150601f19603f3d011682016040523d82523d6000602084013e61082d565b606091505b5050905050505050565b828054600181600116156101000203166002900490600052602060002090601f016020900481019282601f1061087857805160ff19168380011785556108a6565b828001600101855582156108a6579182015b828111156108a557825182559160200191906001019061088a565b5b5090506108b391906108b7565b5090565b6108d991905b808211156108d55760008160009055506001016108bd565b5090565b90565b60006a636f6e736f6c652e6c6f6773ffffffffffffffffffffffffffffffffffffffff168383604051602401808060200180602001838103835285818151815260200191508051906020019080838360005b8381101561094957808201518184015260208101905061092e565b50505050905090810190601f1680156109765780820380516001836020036101000a031916815260200191505b50838103825284818151815260200191508051906020019080838360005b838110156109af578082015181840152602081019050610994565b50505050905090810190601f1680156109dc5780820380516001836020036101000a031916815260200191505b509450505050506040516020818303038152906040527f4b5c4277000000000000000000000000000000000000000000000000000000007bffffffffffffffffffffffffffffffffffffffffffffffffffffffff19166020820180517bffffffffffffffffffffffffffffffffffffffffffffffffffffffff83818316178352505050506040518082805190602001908083835b602083101515610a955780518252602082019150602081019050602083039250610a70565b6001836020036101000a038019825116818451168082178552505050505050905001915050600060405180830381855afa9150503d8060008114610af5576040519150601f19603f3d011682016040523d82523d6000602084013e610afa565b606091505b5050905050505056fea165627a7a7230582087c8abb98ab7e29c3066ca61a2a9f2c85ab0cca331baf99a0e8c29594df077e20029"
}