{
  "abi": [
    {
      "inputs": [
        {
          "internalType": "uint256",
          "name": "t",
          "type": "uint256"
        }
      ],
      "name": "times4",
      "outputs": [
        {
          "internalType": "uint256",
          "name": "",
          "type": "uint256"
        }
      ],
      "stateMutability": "pure",
      "type": "function"
    },
    {
      "inputs": [
        {
          "internalType": "uint256",
          "name": "t",
          "type": "uint256"
        }
      ],
      "name": "times6",
      "outputs": [
        {
          "internalType": "uint256",
          "name": "",
          "type": "uint256"
        }
      ],
      "stateMutability": "pure",
      "type": "function"
    }
  ],
  "address": "0xe6e20ce98995AC4eB2a1FB3BB94d58F25Ef81413",
  "args": [],
  "solcInputHash": "0x0ab2c8b7a20813daa8f649cdb78f8038d4c9e4003e616f82dba31eea15e69353",
  "bytecode": "0x608060405234801561001057600080fd5b506103c0806100206000396000f3fe608060405234801561001057600080fd5b50600436106100365760003560e01c806310be24461461003b57806320e31a851461007d575b600080fd5b6100676004803603602081101561005157600080fd5b81019080803590602001909291905050506100bf565b6040518082815260200191505060405180910390f35b6100a96004803603602081101561009357600080fd5b810190808035906020019092919050505061026a565b6040518082815260200191505060405180910390f35b60008173__$c74f75fcf2253d9a4349c171d262eeb031$__633cf3bbf490916040518263ffffffff1660e01b81526004018082815260200191505060206040518083038186803b15801561011257600080fd5b505af4158015610126573d6000803e3d6000fd5b505050506040513d602081101561013c57600080fd5b810190808051906020019092919050505073__$c74f75fcf2253d9a4349c171d262eeb031$__633cf3bbf490916040518263ffffffff1660e01b81526004018082815260200191505060206040518083038186803b15801561019d57600080fd5b505af41580156101b1573d6000803e3d6000fd5b505050506040513d60208110156101c757600080fd5b810190808051906020019092919050505073__$c74f75fcf2253d9a4349c171d262eeb031$__633cf3bbf490916040518263ffffffff1660e01b81526004018082815260200191505060206040518083038186803b15801561022857600080fd5b505af415801561023c573d6000803e3d6000fd5b505050506040513d602081101561025257600080fd5b81019080805190602001909291905050509050919050565b60008173__$c74f75fcf2253d9a4349c171d262eeb031$__633cf3bbf490916040518263ffffffff1660e01b81526004018082815260200191505060206040518083038186803b1580156102bd57600080fd5b505af41580156102d1573d6000803e3d6000fd5b505050506040513d60208110156102e757600080fd5b810190808051906020019092919050505073__$c74f75fcf2253d9a4349c171d262eeb031$__633cf3bbf490916040518263ffffffff1660e01b81526004018082815260200191505060206040518083038186803b15801561034857600080fd5b505af415801561035c573d6000803e3d6000fd5b505050506040513d602081101561037257600080fd5b8101908080519060200190929190505050905091905056fea264697066735822122057cf34a9c91493ced62540ae7ad14b1cfb2ba26698de79d174a9fa231fdd002d64736f6c63430006050033",
  "libraries": {
    "ALibrary": "0x2b63463C8aC639F37413b70b6443deE2aAEdFFf6"
  },
  "devdoc": {
    "methods": {}
  },
  "userdoc": {
    "methods": {}
  },
  "storageLayout": {
    "storage": [],
    "types": null
  },
  "gasEstimates": {
    "creation": {
      "codeDepositCost": "192000",
      "executionCost": "232",
      "totalCost": "192232"
    },
    "external": {
      "times4(uint256)": "infinite",
      "times6(uint256)": "infinite"
    }
  }
}