{
  "abi": [
    {
      "inputs": [],
      "name": "action",
      "outputs": [],
      "stateMutability": "nonpayable",
      "type": "function"
    },
    {
      "inputs": [
        {
          "internalType": "string",
          "name": "name",
          "type": "string"
        }
      ],
      "name": "save",
      "outputs": [],
      "stateMutability": "nonpayable",
      "type": "function"
    }
  ],
  "address": "0x6aCDCa1D537D83e132b4b0C42CfF97BE5F2C10b1",
  "args": [],
  "solcInputHash": "0x0ab2c8b7a20813daa8f649cdb78f8038d4c9e4003e616f82dba31eea15e69353",
  "bytecode": "0x608060405234801561001057600080fd5b506102e3806100206000396000f3fe608060405234801561001057600080fd5b50600436106100365760003560e01c80630a7a1c4d1461003b57806338e48f0614610045575b600080fd5b6100436100be565b005b6100bc6004803603602081101561005b57600080fd5b810190808035906020019064010000000081111561007857600080fd5b82018360208201111561008a57600080fd5b803590602001918460018302840111640100000000831117156100ac57600080fd5b9091929391929390505050610172565b005b6000604051602001808280546001816001161561010002031660029004801561011e5780601f106100fc57610100808354040283529182019161011e565b820191906000526020600020905b81548152906001019060200180831161010a575b5050807f5f310000000000000000000000000000000000000000000000000000000000008152506002019150506040516020818303038152906040526000908051906020019061016f929190610188565b50565b818160009190610183929190610208565b505050565b828054600181600116156101000203166002900490600052602060002090601f016020900481019282601f106101c957805160ff19168380011785556101f7565b828001600101855582156101f7579182015b828111156101f65782518255916020019190600101906101db565b5b5090506102049190610288565b5090565b828054600181600116156101000203166002900490600052602060002090601f016020900481019282601f1061024957803560ff1916838001178555610277565b82800160010185558215610277579182015b8281111561027657823582559160200191906001019061025b565b5b5090506102849190610288565b5090565b6102aa91905b808211156102a657600081600090555060010161028e565b5090565b9056fea264697066735822122031ac8cdfe70a1fc5de950a121229d96a159be59c6f5b025f8307358409937bda64736f6c63430006050033",
  "devdoc": {
    "methods": {}
  },
  "userdoc": {
    "methods": {}
  },
  "storageLayout": {
    "storage": [
      {
        "astId": 8520,
        "contract": "src/diamon_test/ActionFacet.sol:ActionFacet",
        "label": "_name",
        "offset": 0,
        "slot": "0",
        "type": "t_string_storage"
      },
      {
        "astId": 8522,
        "contract": "src/diamon_test/ActionFacet.sol:ActionFacet",
        "label": "_value",
        "offset": 0,
        "slot": "1",
        "type": "t_uint256"
      }
    ],
    "types": {
      "t_string_storage": {
        "encoding": "bytes",
        "label": "string",
        "numberOfBytes": "32"
      },
      "t_uint256": {
        "encoding": "inplace",
        "label": "uint256",
        "numberOfBytes": "32"
      }
    }
  },
  "gasEstimates": {
    "creation": {
      "codeDepositCost": "147800",
      "executionCost": "196",
      "totalCost": "147996"
    },
    "external": {
      "action()": "infinite",
      "save(string)": "infinite"
    }
  }
}