{
  "abi": [
    {
      "inputs": [],
      "name": "test",
      "outputs": [],
      "stateMutability": "view",
      "type": "function"
    },
    {
      "inputs": [
        {
          "internalType": "uint256",
          "name": "t",
          "type": "uint256"
        }
      ],
      "name": "twice",
      "outputs": [
        {
          "internalType": "uint256",
          "name": "",
          "type": "uint256"
        }
      ],
      "stateMutability": "pure",
      "type": "function"
    }
  ],
  "address": "0x2b63463C8aC639F37413b70b6443deE2aAEdFFf6",
  "args": [],
  "solcInputHash": "0x0ab2c8b7a20813daa8f649cdb78f8038d4c9e4003e616f82dba31eea15e69353",
  "bytecode": "0x61023b610026600b82828239805160001a60731461001957fe5b30600052607381538281f3fe73000000000000000000000000000000000000000030146080604052600436106100405760003560e01c80633cf3bbf414610045578063f8a8fd6d14610087575b600080fd5b6100716004803603602081101561005b57600080fd5b8101908080359060200190929190505050610091565b6040518082815260200191505060405180910390f35b61008f61009e565b005b6000600282029050919050565b6100dc6040518060400160405280600581526020017f74657374330000000000000000000000000000000000000000000000000000008152506100de565b565b6101d9816040516024018080602001828103825283818151815260200191508051906020019080838360005b8381101561012557808201518184015260208101905061010a565b50505050905090810190601f1680156101525780820380516001836020036101000a031916815260200191505b50925050506040516020818303038152906040527f41304fac000000000000000000000000000000000000000000000000000000007bffffffffffffffffffffffffffffffffffffffffffffffffffffffff19166020820180517bffffffffffffffffffffffffffffffffffffffffffffffffffffffff83818316178352505050506101dc565b50565b60008151905060006a636f6e736f6c652e6c6f679050602083016000808483855afa505050505056fea2646970667358221220bd0aa5a17af3d0553d30d3643554c65cc42101dee0c8ad5d1d853015755daa8664736f6c63430006050033",
  "devdoc": {
    "methods": {}
  },
  "userdoc": {
    "methods": {}
  },
  "storageLayout": {
    "storage": [],
    "types": null
  },
  "gasEstimates": {
    "creation": {
      "codeDepositCost": "114200",
      "executionCost": "187",
      "totalCost": "114387"
    },
    "external": {
      "test()": "infinite",
      "twice(uint256)": "270"
    }
  }
}