{
  "address": "0xa3B62DAd4cf58b8b2DE48CE35135BBfC03922f29",
  "abi": [
    {
      "inputs": [
        {
          "internalType": "contract IERC20",
          "name": "token",
          "type": "address"
        },
        {
          "internalType": "uint256",
          "name": "amount",
          "type": "uint256"
        },
        {
          "internalType": "address",
          "name": "to",
          "type": "address"
        },
        {
          "internalType": "bytes",
          "name": "callData",
          "type": "bytes"
        }
      ],
      "name": "forward",
      "outputs": [
        {
          "internalType": "bytes",
          "name": "",
          "type": "bytes"
        }
      ],
      "stateMutability": "payable",
      "type": "function"
    },
    {
      "inputs": [
        {
          "internalType": "contract IERC20",
          "name": "token",
          "type": "address"
        },
        {
          "internalType": "uint256",
          "name": "amount",
          "type": "uint256"
        },
        {
          "internalType": "address",
          "name": "to",
          "type": "address"
        },
        {
          "internalType": "bytes",
          "name": "callData",
          "type": "bytes"
        }
      ],
      "name": "transferERC20AndCall",
      "outputs": [
        {
          "internalType": "bytes",
          "name": "",
          "type": "bytes"
        }
      ],
      "stateMutability": "payable",
      "type": "function"
    }
  ],
  "args": [],
  "solcInputHash": "3807195278a4f623cd887d869b93710e",
  "bytecode": "0x608060405234801561001057600080fd5b50610a5e806100206000396000f3fe6080604052600436106100295760003560e01c806364fa70cd1461002e578063efd5d28e1461016a575b600080fd5b6100ef6004803603608081101561004457600080fd5b81019080803573ffffffffffffffffffffffffffffffffffffffff16906020019092919080359060200190929190803573ffffffffffffffffffffffffffffffffffffffff169060200190929190803590602001906401000000008111156100ab57600080fd5b8201836020820111156100bd57600080fd5b803590602001918460018302840111640100000000831117156100df57600080fd5b90919293919293905050506102a6565b6040518080602001828103825283818151815260200191508051906020019080838360005b8381101561012f578082015181840152602081019050610114565b50505050905090810190601f16801561015c5780820380516001836020036101000a031916815260200191505b509250505060405180910390f35b61022b6004803603608081101561018057600080fd5b81019080803573ffffffffffffffffffffffffffffffffffffffff16906020019092919080359060200190929190803573ffffffffffffffffffffffffffffffffffffffff169060200190929190803590602001906401000000008111156101e757600080fd5b8201836020820111156101f957600080fd5b8035906020019184600183028401116401000000008311171561021b57600080fd5b90919293919293905050506102f2565b6040518080602001828103825283818151815260200191508051906020019080838360005b8381101561026b578082015181840152602081019050610250565b50505050905090810190601f1680156102985780820380516001836020036101000a031916815260200191505b509250505060405180910390f35b606060003390506102d885878973ffffffffffffffffffffffffffffffffffffffff166103409092919063ffffffff16565b6102e68188888888886103e2565b91505095945050505050565b606060003390506103268186888a73ffffffffffffffffffffffffffffffffffffffff166104f6909392919063ffffffff16565b6103348188888888886103e2565b91505095945050505050565b6103dd8363a9059cbb60e01b8484604051602401808373ffffffffffffffffffffffffffffffffffffffff16815260200182815260200192505050604051602081830303815290604052907bffffffffffffffffffffffffffffffffffffffffffffffffffffffff19166020820180517bffffffffffffffffffffffffffffffffffffffffffffffffffffffff83818316178352505050506105b7565b505050565b606080838388888b604051602001808473ffffffffffffffffffffffffffffffffffffffff1681526020018381526020018273ffffffffffffffffffffffffffffffffffffffff1681526020019350505050604051602081830303815290604052604051602001808484808284378083019250505082805190602001908083835b602083106104865780518252602082019150602081019050602083039250610463565b6001836020036101000a038019825116818451168082178552505050505050905001935050505060405160208183030381529060405290506104e981348773ffffffffffffffffffffffffffffffffffffffff166106a69092919063ffffffff16565b9150509695505050505050565b6105b1846323b872dd60e01b858585604051602401808473ffffffffffffffffffffffffffffffffffffffff1681526020018373ffffffffffffffffffffffffffffffffffffffff1681526020018281526020019350505050604051602081830303815290604052907bffffffffffffffffffffffffffffffffffffffffffffffffffffffff19166020820180517bffffffffffffffffffffffffffffffffffffffffffffffffffffffff83818316178352505050506105b7565b50505050565b6060610619826040518060400160405280602081526020017f5361666545524332303a206c6f772d6c6576656c2063616c6c206661696c65648152508573ffffffffffffffffffffffffffffffffffffffff166106d59092919063ffffffff16565b90506000815111156106a15780806020019051602081101561063a57600080fd5b81019080805190602001909291905050506106a0576040517f08c379a000000000000000000000000000000000000000000000000000000000815260040180806020018281038252602a8152602001806109ff602a913960400191505060405180910390fd5b5b505050565b60606106cc8484846040518060600160405280602981526020016109d6602991396106ed565b90509392505050565b60606106e4848460008561075e565b90509392505050565b606082471015610748576040517f08c379a00000000000000000000000000000000000000000000000000000000081526004018080602001828103825260268152602001806109b06026913960400191505060405180910390fd5b6107548585858561075e565b9050949350505050565b606061076985610964565b6107db576040517f08c379a000000000000000000000000000000000000000000000000000000000815260040180806020018281038252601d8152602001807f416464726573733a2063616c6c20746f206e6f6e2d636f6e747261637400000081525060200191505060405180910390fd5b600060608673ffffffffffffffffffffffffffffffffffffffff1685876040518082805190602001908083835b6020831061082b5780518252602082019150602081019050602083039250610808565b6001836020036101000a03801982511681845116808217855250505050505090500191505060006040518083038185875af1925050503d806000811461088d576040519150601f19603f3d011682016040523d82523d6000602084013e610892565b606091505b509150915081156108a757809250505061095c565b6000815111156108ba5780518082602001fd5b836040517f08c379a00000000000000000000000000000000000000000000000000000000081526004018080602001828103825283818151815260200191508051906020019080838360005b83811015610921578082015181840152602081019050610906565b50505050905090810190601f16801561094e5780820380516001836020036101000a031916815260200191505b509250505060405180910390fd5b949350505050565b60008060007fc5d2460186f7233c927e7db2dcc703c0e500b653ca82273b7bfad8045d85a47060001b9050833f91508082141580156109a657506000801b8214155b9250505091905056fe416464726573733a20696e73756666696369656e742062616c616e636520666f722063616c6c416464726573733a206c6f772d6c6576656c2063616c6c20776974682076616c7565206661696c65645361666545524332303a204552433230206f7065726174696f6e20646964206e6f742073756363656564a264697066735822122085045cce4f3ff5cc7745461fb2fcdb561990634afbe7ddf57b536f0b2dc2818664736f6c63430007030033",
  "devdoc": {
    "kind": "dev",
    "methods": {},
    "version": 1
  },
  "userdoc": {
    "kind": "user",
    "methods": {
      "forward(address,uint256,address,bytes)": {
        "notice": "to be called atomically after sending the tokens to the gateway"
      }
    },
    "notice": "Gateway that forwward payment information to the recipient.",
    "version": 1
  },
  "storageLayout": {
    "storage": [],
    "types": null
  }
}