{
  "abi": [
    {
      "inputs": [
        {
          "internalType": "contract Greeter",
          "name": "greeter",
          "type": "address"
        }
      ],
      "stateMutability": "nonpayable",
      "type": "constructor"
    },
    {
      "inputs": [],
      "name": "greet",
      "outputs": [
        {
          "internalType": "string",
          "name": "",
          "type": "string"
        }
      ],
      "stateMutability": "view",
      "type": "function"
    },
    {
      "inputs": [],
      "name": "mint",
      "outputs": [],
      "stateMutability": "nonpayable",
      "type": "function"
    },
    {
      "inputs": [
        {
          "internalType": "contract Greeter",
          "name": "greeter",
          "type": "address"
        }
      ],
      "name": "postUpgrade",
      "outputs": [],
      "stateMutability": "nonpayable",
      "type": "function"
    }
  ],
  "address": "0x6f0b9381E520e16EC7D495D494993fC5D2F2C449",
  "args": [
    "0x82Ee7Ff18899d4c2Cd0105918B2666519458d5e6"
  ],
  "solcInputHash": "0x0ab2c8b7a20813daa8f649cdb78f8038d4c9e4003e616f82dba31eea15e69353",
  "bytecode": "0x608060405234801561001057600080fd5b50604051610c75380380610c758339818101604052602081101561003357600080fd5b81019080805190602001909291905050506100538161005960201b60201c565b506103f2565b60007fb53127684a568b3173ae13b9f8a6016e243e63b6e8ee1178d6a717850b5d6103549050600073ffffffffffffffffffffffffffffffffffffffff168173ffffffffffffffffffffffffffffffffffffffff1614156100f05773ffffffffffffffffffffffffffffffffffffffff7fb53127684a568b3173ae13b9f8a6016e243e63b6e8ee1178d6a717850b5d610355610129565b8073ffffffffffffffffffffffffffffffffffffffff163373ffffffffffffffffffffffffffffffffffffffff161461012857600080fd5b5b6000600254141561013d5760016002819055505b816000806101000a81548173ffffffffffffffffffffffffffffffffffffffff021916908373ffffffffffffffffffffffffffffffffffffffff1602179055506001600081548092919060010191905055506101da6040518060400160405280600b81526020017f706f7374557067726164650000000000000000000000000000000000000000008152506001546101f160201b6105051760201c565b6101ed306102fe60201b61060c1760201c565b5050565b6102fa82826040516024018080602001838152602001828103825284818151815260200191508051906020019080838360005b8381101561023f578082015181840152602081019050610224565b50505050905090810190601f16801561026c5780820380516001836020036101000a031916815260200191505b5093505050506040516020818303038152906040527f9710a9d0000000000000000000000000000000000000000000000000000000007bffffffffffffffffffffffffffffffffffffffffffffffffffffffff19166020820180517bffffffffffffffffffffffffffffffffffffffffffffffffffffffff83818316178352505050506103c960201b60201c565b5050565b6103c681604051602401808273ffffffffffffffffffffffffffffffffffffffff1673ffffffffffffffffffffffffffffffffffffffff1681526020019150506040516020818303038152906040527f2c2ecbc2000000000000000000000000000000000000000000000000000000007bffffffffffffffffffffffffffffffffffffffffffffffffffffffff19166020820180517bffffffffffffffffffffffffffffffffffffffffffffffffffffffff83818316178352505050506103c960201b60201c565b50565b60008151905060006a636f6e736f6c652e6c6f679050602083016000808483855afa5050505050565b610874806104016000396000f3fe608060405234801561001057600080fd5b50600436106100415760003560e01c80631249c58b14610046578063c79b243014610050578063cfae321714610094575b600080fd5b61004e610117565b005b6100926004803603602081101561006657600080fd5b81019080803573ffffffffffffffffffffffffffffffffffffffff16906020019092919050505061012b565b005b61009c6102af565b6040518080602001828103825283818151815260200191508051906020019080838360005b838110156100dc5780820151818401526020810190506100c1565b50505050905090810190601f1680156101095780820380516001836020036101000a031916815260200191505b509250505060405180910390f35b600260008154809291906001019190505550565b60007fb53127684a568b3173ae13b9f8a6016e243e63b6e8ee1178d6a717850b5d6103549050600073ffffffffffffffffffffffffffffffffffffffff168173ffffffffffffffffffffffffffffffffffffffff1614156101c25773ffffffffffffffffffffffffffffffffffffffff7fb53127684a568b3173ae13b9f8a6016e243e63b6e8ee1178d6a717850b5d6103556101fb565b8073ffffffffffffffffffffffffffffffffffffffff163373ffffffffffffffffffffffffffffffffffffffff16146101fa57600080fd5b5b6000600254141561020f5760016002819055505b816000806101000a81548173ffffffffffffffffffffffffffffffffffffffff021916908373ffffffffffffffffffffffffffffffffffffffff1602179055506001600081548092919060010191905055506102a26040518060400160405280600b81526020017f706f737455706772616465000000000000000000000000000000000000000000815250600154610505565b6102ab3061060c565b5050565b60606000809054906101000a900473ffffffffffffffffffffffffffffffffffffffff1673ffffffffffffffffffffffffffffffffffffffff1663cfae32176040518163ffffffff1660e01b815260040160006040518083038186803b15801561031857600080fd5b505afa15801561032c573d6000803e3d6000fd5b505050506040513d6000823e3d601f19601f82011682018060405250602081101561035657600080fd5b810190808051604051939291908464010000000082111561037657600080fd5b8382019150602082018581111561038c57600080fd5b82518660018202830111640100000000821117156103a957600080fd5b8083526020830192505050908051906020019080838360005b838110156103dd5780820151818401526020810190506103c2565b50505050905090810190601f16801561040a5780820380516001836020036101000a031916815260200191505b5060405250505061041c6001546106d1565b6040516020018083805190602001908083835b60208310610452578051825260208201915060208101905060208303925061042f565b6001836020036101000a038019825116818451168082178552505050505050905001807f203a20000000000000000000000000000000000000000000000000000000000081525060030182805190602001908083835b602083106104cb57805182526020820191506020810190506020830392506104a8565b6001836020036101000a03801982511681845116808217855250505050505090500192505050604051602081830303815290604052905090565b61060882826040516024018080602001838152602001828103825284818151815260200191508051906020019080838360005b83811015610553578082015181840152602081019050610538565b50505050905090810190601f1680156105805780820380516001836020036101000a031916815260200191505b5093505050506040516020818303038152906040527f9710a9d0000000000000000000000000000000000000000000000000000000007bffffffffffffffffffffffffffffffffffffffffffffffffffffffff19166020820180517bffffffffffffffffffffffffffffffffffffffffffffffffffffffff8381831617835250505050610815565b5050565b6106ce81604051602401808273ffffffffffffffffffffffffffffffffffffffff1673ffffffffffffffffffffffffffffffffffffffff1681526020019150506040516020818303038152906040527f2c2ecbc2000000000000000000000000000000000000000000000000000000007bffffffffffffffffffffffffffffffffffffffffffffffffffffffff19166020820180517bffffffffffffffffffffffffffffffffffffffffffffffffffffffff8381831617835250505050610815565b50565b60606000821415610719576040518060400160405280600181526020017f30000000000000000000000000000000000000000000000000000000000000008152509050610810565b600082905060005b60008214610743578080600101915050600a828161073b57fe5b049150610721565b60608167ffffffffffffffff8111801561075c57600080fd5b506040519080825280601f01601f19166020018201604052801561078f5781602001600182028036833780820191505090505b50905060006001830390505b6000861461080857600a86816107ad57fe5b0660300160f81b828280600190039350815181106107c757fe5b60200101907effffffffffffffffffffffffffffffffffffffffffffffffffffffffffffff1916908160001a905350600a868161080057fe5b04955061079b565b819450505050505b919050565b60008151905060006a636f6e736f6c652e6c6f679050602083016000808483855afa505050505056fea26469706673582212204f4978274848dfa092324ece4868cca2e8fb35fac5084ee9aedf45036bcc80b264736f6c63430006050033",
  "devdoc": {
    "methods": {}
  },
  "userdoc": {
    "methods": {}
  },
  "storageLayout": {
    "storage": [
      {
        "astId": 8283,
        "contract": "src/Example.sol:Example",
        "label": "_greeter",
        "offset": 0,
        "slot": "0",
        "type": "t_contract(Greeter)8442"
      },
      {
        "astId": 8285,
        "contract": "src/Example.sol:Example",
        "label": "_v",
        "offset": 0,
        "slot": "1",
        "type": "t_uint256"
      },
      {
        "astId": 8287,
        "contract": "src/Example.sol:Example",
        "label": "_nextMintId",
        "offset": 0,
        "slot": "2",
        "type": "t_uint256"
      }
    ],
    "types": {
      "t_contract(Greeter)8442": {
        "encoding": "inplace",
        "label": "contract Greeter",
        "numberOfBytes": "20"
      },
      "t_uint256": {
        "encoding": "inplace",
        "label": "uint256",
        "numberOfBytes": "32"
      }
    }
  },
  "gasEstimates": {
    "creation": {
      "codeDepositCost": "432800",
      "executionCost": "infinite",
      "totalCost": "infinite"
    },
    "external": {
      "greet()": "infinite",
      "mint()": "20959",
      "postUpgrade(address)": "infinite"
    },
    "internal": {
      "uint2str(uint256)": "infinite"
    }
  }
}